:100000004CC100007EC10000C1C500007AC10000E3
:1000100078C1000076C1000074C1000072C1000008
:1000200070C100006EC100000C94F31B0C942B1CDB
:1000300068C1000066C1000064C1000062C1000028
:1000400060C1000090C100008CC100005AC10000D6
:1000500089C10000E0C5000054C1000052C1000089
:1000600050C100000C9437084CC100004AC1000088
:1000700048C1000046C1000044C1000042C1000068
:1000800040C100003EC100003CC100003AC1000078
:1000900038C1000036C1000034C1000032C1000088
:1000A00030C100002EC100002CC10000A004B1042A
:1000B000BF04D204D90401050905120519051F055D
:1000C0001F051F051F051F051F051F051F051F0510
:1000D0001F051F051F051F051F051F051F051F0500
:1000E0001F051F051F051F051F051F05A004AA04E6
:1000F000B104BF04D204D904EC04F304FA04E31BF2
:10010000DF1BDB1BD71BD31BCF1BCB1BC71BC31B8F
:10011000BF1BBB1BB71BB31BAF1BAB1BA71BA31B7F
:100120009F1B9B1B971B931B8F1B8B1B871B831B6F
:100130007F1B7B1B771B731B6F1B6B1B671B631B5F
:100140005F1B5B1B571B531B4F1B4B1B471B431B4F
:100150003F1B3B1B371B331B2F1B2B1B271B231B3F
:100160001F1B1B1B171B131B0F1B0B1B071B031B2F
:10017000FF1AFB1AF71AF31AEF1AEB1AE71AE31A27
:100180000001000075021200020000320243000369
:10019000000010020401030904EE011E0203090419
:1001A000CC011603030904AA010C0C033100320030
:1001B00033003400350000000000000000000000A3
:1001C00000000000000000000000000016035500C1
:1001D0005300420020005300650072006900610076
:1001E0006C000000000000000000000000001E0382
:1001F0006400690067006900740061006C006300BE
:100200006100760065002E006300610000000000C0
:1002100004030904000000000000000000000000CA
:1002200000000000000000000000000000000000CE
:10023000000009024300020100C03209040000016D
:10024000020201000524001001052401010104241B
:100250000206052406000107058203100040090478
:100260000100020A00000007050302400000070524
:1002700084024000001201000202000010C0167A41
:10028000040001010203010001C112018036018155
:100290003600EE055D08F305E40811241FBECFEF1C
:1002A000DAE0DEBFCDBF14BE0FB6F894A8958091FA
:1002B0006000886180936000109260000FBE15E0BE
:1002C000A0E0B1E0EEEEF8E402C005900D92A43D8E
:1002D000B107D9F727E0A4EDB5E001C01D92A7371B
:1002E000B207E1F711E0CBE4D1E004C02197FE01B1
:1002F0000E94CE1DC934D107C9F70E945E130C9429
:100300006B247ECE10928000E1E8F0E0808189606D
:10031000808380E89EE3909389008093880080E149
:1003200090E0A0E0B0E08093D4059093D505A09331
:10033000D605B093D70582E080936F001092D80560
:100340001092D9051092DA051092DB057894089581
:100350006091D8057091D9058091DA059091DB05FF
:100360000895189518951F920F920FB60F921124A9
:100370008F939F93AF93BF938091D8059091D905A8
:10038000A091DA05B091DB050196A11DB11D809306
:10039000D8059093D905A093DA05B093DB05BF91FA
:1003A000AF919F918F910F900FBE0F901F90189556
:1003B0000F931F93CF93DF93DC01942F6093DC05A1
:1003C000CDEDD5E0FD0170E041E050E09F012A1B3A
:1003D0003B0B2617370784F421912F7029938091C6
:1003E0007E008A0102C0000F111F2A95E2F79801D2
:1003F000282B20937E00EACF80917A008768809333
:100400007A0080917C008F7380937C0080917C00C7
:1004100010E4919FA0011124482B40937C0010927E
:100420007B00DF91CF911F910F91089520917C0067
:10043000207FE82FF0E0E352FA4F9081822F892B42
:1004400080937C0080917A00806480937A00809110
:100450007A0086FDFCCF8091780090917900089514
:10046000FC014FEF5FEFBA014083518362837383D6
:1004700010861186128613868FEF99ECAAE9BBE3EA
:10048000808B918BA28BB38B808F918FA28FB38F38
:1004900080A391A3A2A3B3A380A791A7A2A7B3A768
:1004A00080AB91ABA2ABB3AB40AF51AF62AF73AF18
:1004B000DF01A05CBF4F8FEF90E011969C938E936D
:1004C00014964D935D936D937C93139718964D936B
:1004D0005D936D937C93139718961C9211961C92C2
:1004E000509682E08C9311961C9211961C92119654
:1004F0001C9211961D921D921D921C921397149698
:1005000011961C921E9212961D921C92EA5AFF4F4F
:10051000108208952FEB260F862F062E000C990BC4
:10052000263010F4C79708956156663018F4875541
:1005300091090895C09708950F931F93CF93DF9368
:10054000EB0160E070E0CB01E99120ED2E0F2A3045
:10055000C0F4AAE0B0E09B01AC010E94EF1D0E2F99
:10056000EE0F110B220B330BDC01CB01800F911F1F
:10057000A21FB31FBC01CD0160537109810991090C
:10058000E3CFDF91CF911F910F9108950F931F93A8
:10059000CF93DF93EC01CA5ADF4F18811D3209F463
:1005A0002196BE01C9DF9B01AC01A4E6B0E00E9428
:1005B000EF1DAB01BC01FE01899190ED980F9A30BF
:1005C000D0F38E3241F5818190ED980F9A3018F575
:1005D000082E000C990BC097AAE0A89F9001A99F34
:1005E000300D1124C901330FAA0BBB0B480F591F43
:1005F0006A1F7B1F828190ED980F9A3060F4082E5D
:10060000000C990BC097092E000CAA0BBB0B480FCE
:10061000591F6A1F7B1F1D3251F48A019B016627F7
:100620007727CB01601B710B820B930B02C0CB01B0
:10063000BA01DF91CF911F910F9108954F925F9270
:100640006F927F928F929F92AF92BF92CF92DF92E2
:10065000EF92FF92CF93DF93EC01CA5ADF4FBE01B6
:100660006BDF2B013C0124E630E040E050E00E94CB
:10067000901D9B01AC0160EA76E881E090E00E9469
:100680006E1D6B017C01FE01819190ED980F9A30F7
:10069000D8F38E3219F5EF0180E1882E87E2982E8B
:1006A000A12CB12CA99180ED8A0F8A30B8F40A2EC2
:1006B000000CBB0BD097A50194010E94F91DC60E3A
:1006C000D71EE81EF91EC501B4012AE030E040E063
:1006D00050E00E94901D49015A01E4CFC301B201CC
:1006E00024E630E040E050E00E94901D60E472E4B7
:1006F0008FE090E00E946E1D4B015C01C701B601C6
:100700006D5F7F4F8F4F9F4F26E030E040E050E01D
:100710000E94901DC501B401620F731F841F951FB5
:10072000DF91CF91FF90EF90DF90CF90BF90AF908F
:100730009F908F907F906F905F904F900895DB0116
:10074000FA018D91882319F091918917D1F3082E20
:10075000000C990B0895CF92DF92EF92FF921F93B6
:10076000CF93DF93EC01FC01EB5AFF4F1081112373
:1007700009F4A7C031966081CDDE182FFE01E95A39
:10078000FF4F6081CE01C6DE20E1129F800D112453
:10079000FE01EC5AFF4F908189138AC07496108134
:1007A000112309F44CC13596808191810196918382
:1007B0008083B59780819181A281B38134978083B2
:1007C0009183A283B3833C9680819181A281B3817E
:1007D000349780839183A283B38379968081882321
:1007E000A1F1813009F02BC18C819D81AE81BF8147
:1007F00088839983AA83BB838C859D85AE85BF85BD
:1008000088879987AA87BB878C899D89AE89BF898C
:10081000888B998BAA8BBB8B8C8D9D8DAE8DBF8D5C
:10082000888F998FAA8FBB8F8CA59DA5AEA5BFA5DC
:1008300088A799A7AAA7BBA78CA99DA9AEA9BFA95C
:1008400088AB99ABAAABBBABFAC08CA19DA1AEA102
:10085000BFA188A399A3AAA3BBA38C819D81AE81CC
:10086000BF8188839983AA83BB838C899D89AE8944
:10087000BF89888B998BAA8BBB8B8C8D9D8DAE8D00
:10088000BF8D888F998FAA8FBB8FFE01E05CFF4FD1
:10089000DE01AE5BBF4F8D919C91918380838CADC7
:1008A0009DADAEADBFAD88AF99AFAAAFBBAFC7C06E
:1008B000C159DF4F8881998101969983888310E01F
:1008C000BEC0FC01EA59FF4F8081DE01AB59BF4F2A
:1008D0007D0181111BC06E01B6E5CB0ED11C4DE030
:1008E00051E0B601CE012BDF892B11F481E00BC062
:1008F00043E151E0B601CE0122DF892B19F4D70183
:100900001C929DC082E0F701808399C0EC91E23097
:1009100009F495C0BE016A5A7F4FDB019C9199236F
:1009200009F48DC0B0E2EB9FF0011124E82B319760
:10093000E932F10508F083C0EA5AFF4F0C94CE1D4E
:10094000CE0124DE6C837D838E839F8301DDC85BB3
:10095000DF4F10C0C859DF4F81E0913409F056C015
:1009600056C0CE016BDE6C8B7D8B8E8B9F8BF0DC4B
:10097000C05BDF4F688379838A839B8360C0933534
:1009800009F05DC08C899D89AE89BF89B095A0951D
:10099000909581959F4FAF4FBF4F8C8B9D8BAE8BAA
:1009A000BF8B4DC0CE014ADE6C8F7D8F8E8F9F8FA7
:1009B00046C0973509F043C08C8D9D8DAE8DBF8D9F
:1009C000B095A095909581959F4FAF4FBF4F8C8F5D
:1009D0009D8FAE8FBF8F33C0CE01D8DD6CA77DA7B2
:1009E0008EA79FA72CC0CE01D1DD6CAB7DAB8EABAB
:1009F0009FAB25C0CE01A0DD6C877D878E879F874A
:100A00001EC0C859DF4F81E091330CF480E0888329
:100A100016C0CB010E944621CE5BDF4F99279983F8
:100A200088830DC0CE01B2DD6CAF7DAF8EAF9FAFBE
:100A300006C0CE01ABDD6CA37DA38EA39FA3812F47
:100A4000DF91CF911F91FF90EF90DF90CF900895AD
:100A5000CF92DF92FF920F931F93CF93DF93FC010E
:100A6000E759FF4F00811181228133810F5F1F4FB2
:100A70002F4F3F4F00831183228333839C012959D9
:100A80003F4F6901EC01CB5ADF4F643271F12CF416
:100A90006A3069F06D30C1F50AC06A3241F06C32DB
:100AA00099F5FC01EC5AFF4F208126272083F62E72
:100AB0008C01F60180818F3048F4F801E80FF11DB8
:100AC000EA5AFF4F1082C80146DE01C080E0F801FB
:100AD000EA59FF4F90819F5F9083F601108291E069
:100AE000FAE2FF1290E0988326C0F9011082FC011F
:100AF000EA59FF4F108272971082719622E020838C
:100B000018823396108216C0F60120812E3048F4E8
:100B100031E0320F3083FC01E20FF11DEA5AFF4F42
:100B200060832881211106C0FC01EC5AFF4F8081AF
:100B30006827608380E0DF91CF911F910F91FF9034
:100B4000DF90CF9008951092E7056115724C8140B7
:100B5000910531F48DE08093E9051092E80505C018
:100B60001092E90587EC8093E805509A589A5198BD
:100B700088E080936900E99A08958AEE95E00E94E2
:100B8000621891E0811190E0892F08951F920F92D1
:100B90000FB60F9211248F93EF93FF9381E0809310
:100BA000E705E998EEE6F0E080818D7F808385B5EA
:100BB0008D7F85BD16BC82E084BD85BD8EEF87BD6F
:100BC0001092E505A99A808182608083FF91EF9160
:100BD0008F910F900FBE0F901F90189560E48AEED2
:100BE00095E00C9441188AEE95E00C945918CF9337
:100BF000DF93EC018AEE95E00E946218811107C034
:100C0000BE018AEE95E00E94281881E001C080E0D4
:100C1000DF91CF9108951F920F920FB60F9211247A
:100C20002F933F934F935F936F937F938F939F93F4
:100C3000AF93BF93EF93FF938091E705813081F5E8
:100C40008DEC87BD8091E5058830A0F48091E505A5
:100C50008F5F8093E5058091E60590E095958795F7
:100C60008093E605499B1EC08091E60580688093CD
:100C7000E60518C01092E7058AEE95E00E94691813
:100C8000811106C06091E6058AEE95E00E947B180E
:100C900080916E008D7F80936E00E19AE99A02C088
:100CA0001092E705FF91EF91BF91AF919F918F91C6
:100CB0007F916F915F914F913F912F910F900FBE58
:100CC0000F901F901895FC01718360834283FB0194
:100CD000208181E090E001C0880F4A95EAF7982FC3
:100CE0009095922390839291892B80830895FC01A3
:100CF00085819681009771F4A081B1812C9181E06A
:100D000090E0028002C0880F991F0A94E2F7809554
:100D1000822322C08F3F2FEF920769F4A081B18117
:100D20002C9181E090E0028002C0880F991F0A9404
:100D3000E2F7822B11C0238134812817390778F01C
:100D4000A081B1812C9181E090E0028002C0880FE7
:100D5000991F0A94E2F782278C931482138283816D
:100D60009481680F791F7483638308952FEF3FEF99
:100D7000FC01368325830895FC01168215820895AF
:100D8000FC01768365830895CF92DF92EF92FF9204
:100D90000F931F93CF93DF93FC0111861286138666
:100DA000718360834683338322830783F582E482E1
:100DB000C086DC011696BC01675F7F4F6D018C0118
:100DC000EE24E394F12CE801899199918E01EC01D4
:100DD0003A91CE01E601A701099002C0440F551FC8
:100DE0000A94E2F76E01242F20952323EC01288337
:100DF000C616D70641F741E050E0C191D191288154
:100E0000CA010D9002C0880F991F0A94E2F7822B45
:100E10008883A617B70789F7DF91CF911F910F91AC
:100E2000FF90EF90DF90CF9008958F929F92BF92A6
:100E3000CF92DF92EF92FF920F931F93CF93DF93A6
:100E4000FC011286118613864C018C010A5F1F4F2C
:100E50007801DC0120E030E041E050E0B22E8D91DD
:100E60009D910297EC01888190E0E701099002C012
:100E7000959587950A94E2F77E0180FF17C01A9630
:100E80008D919C911B97845691098C36974048F41C
:100E9000CA01022E01C0880F0A94EAF79285892BB5
:100EA00082871B961C921E921A972DC01A96CD907F
:100EB000DC901B97C601860F971FC4E6CC16D104A1
:100EC0006CF48436910578F06A01022E01C0CC0CD6
:100ED0000A94EAF7D184CD28C18611C0D0EDCD1691
:100EE000D7E0DD0664F4803DC7E09C0740F06A016E
:100EF00001C0CC0CBA94EAF7D384CD28C3861B96E4
:100F00009C938E931A972F5F3F4F2330310509F042
:100F1000A5CFDF011C9672968FEF9FE72D913D9133
:100F20001216130624F4281739070CF4C901AE175A
:100F3000BF07A1F78F3FDFE79D0771F0F40124851C
:100F400035851216130614F495878487F2E08F0E08
:100F5000911C8016910691F7DF91CF911F910F910F
:100F6000FF90EF90DF90CF90BF909F908F9008956B
:100F7000FC0182850895FC0183850895FC0181E0D0
:100F800024853585213D37400CF480E02685378562
:100F9000213D37400CF0826020893189213D374066
:100FA0000CF084600895EF92FF920F931F93CF93FC
:100FB000DF93EC018C01005B1F4F80E4E82E8CE98D
:100FC000F82E699161110AC06DE08AE596E00E94F1
:100FD000981880E49CE90197F1F70AC08AE596E049
:100FE0000E949818C7010197F1F7C017D10749F778
:100FF00084EF91E020E931E0F9013197F1F70197B1
:10100000D9F7DF91CF911F910F91FF90EF90089545
:10101000CF93DF9384EC99E020E931E0F901319737
:10102000F1F70197D9F78DE391E0BDDF81E491E01D
:10103000BADF88E491E0B7DF8EE491E0B4DF85E6C3
:1010400091E0B1DFC0E9D1E06AE076E08AE596E0C0
:101050000E94B319882341F084EF91E0FE0131979B
:10106000F1F70197D9F7F0CFDF91CF9108951F9253
:101070000F920FB60F9211242F933F934F935F93CC
:101080006F937F938F939F93AF93BF93EF93FF9350
:101090008AE596E00E94FE19FF91EF91BF91AF9112
:1010A0009F918F917F916F915F914F913F912F9180
:1010B0000F900FBE0F901F901895AF92CF92EF92A6
:1010C000FF920F938AEF96E00E94631384E0A82EAC
:1010D00096E0C92E28E2E22EF12C07E028E230E06B
:1010E00042E06EE270E081EE96E00E94F21335E09D
:1010F000A32E44E0C42E55E2E52EF12C05E025E2B6
:1011000030E046E065E270E088EC96E00E94F21381
:1011100066E0A62E7BE2E72EF12C06E02BE230E023
:1011200047E06BE270E08FEA96E00E94F21347E03E
:101130006BE270E088EA96E0C6DD46E06BE270E0C4
:1011400081EA96E0C0DD42E065E270E08AE996E07F
:10115000BADD43E065E270E083E996E0B4DD47E0A4
:1011600065E270E08CE896E0AEDDCC24C394E5E265
:10117000EE2EF12C00E025E230E040E061E370E08B
:101180008AE796E001DEF0E4AF2EEE24E39428E057
:1011900040E052EC61E070E08AE596E00E94AF1812
:1011A00088E596E00E94741A60E48EE496E00E945E
:1011B000BA1640E460E089E496E00F91FF90EF906A
:1011C000CF90AF900C943C1689E496E00E945116A3
:1011D0008EE496E00E94D01687EC95E090935B0633
:1011E00080935A068CE596E00C945918CF92DF92C2
:1011F000EF92FF920F931F93CF93DF9300D000D015
:101200001F92CDB7DEB77C0188E596E00E94901A68
:101210008823C9F0F70110E08191811111C06DE0C0
:1012200088E596E00E94301A6AE088E596E00E9420
:10123000301A412FB70188E596E00E94931A03C047
:101240001F5F1C3349F740E46AE0CE0101960E941B
:101250003C16870180E5E80EF11C6801F8016191F8
:101260008F01CE0101960E94AA16F6018081882383
:1012700019F00E151F0589F7AE014F5F5F4F6AE544
:1012800076E08EE496E00E94C317CE0101960E949C
:1012900051160F900F900F900F900F90DF91CF91FC
:1012A0001F910F91FF90EF90DF90CF9008950F93D3
:1012B0001F93CF93DF9300D000D01F92CDB7DEB73E
:1012C0000FB6F894A89580916000886180936000C3
:1012D000109260000FBE80E820E030E00FB6F89476
:1012E00080936100209361000FBE85BF85BF80E0C1
:1012F00091E00E941A24823449F581E091E00E9435
:101300001A248093480682E091E00E941A24809378
:10131000470683E091E00E941A248093460684E009
:1013200091E00E941A2494E6899F80011124B8015B
:1013300081EE96E00E942B16B80188EC96E00E94A0
:101340002B16B8018FEA96E00E942B16899A81B37A
:10135000826881BB5DDE80914806811101C05C9A84
:101360008AE996E003DD83E996E000DD8CE896E00B
:10137000FDDC60E070E08AE996E0B9DC60E070E0F6
:1013800083E996E0B4DC60E070E08CE896E0AFDCE6
:101390006FEF81EE96E00E94E3156FEF88EC96E028
:1013A0000E94E31580914806882359F064E68FEA8D
:1013B00096E00E94411560E070E08FEA96E00E949E
:1013C0003E1460E070E081EE96E00E943E1460E022
:1013D00070E088EC96E00E943E1481E0898387E00B
:1013E0008A8384E08B8385E08C8386E08D8341E073
:1013F00065E0CE0101960E94D80160E875E280E0C8
:1014000090E0A1DB80E49CE920E931E0F90131972B
:10141000F1F70197D9F760E081EE96E00E94E315BD
:1014200060E088EC96E00E94E315809148068823EE
:1014300031F060EA7FE08FEA96E00E943E1460EAB5
:101440007FE081EE96E00E943E1460EA7FE088EC47
:1014500096E00E943E140E94820189E691E0C6DE79
:101460009EE088E10FB6F894A895809360000FBEC7
:10147000909360000F900F900F900F900F90DF915E
:10148000CF911F910F910895AF92BF92CF92DF92AB
:10149000EF92FF920F931F93CF93DF9300D000D072
:1014A0001F92CDB7DEB7A8958091060690910706EA
:1014B000A0910806B0910906809302069093030656
:1014C000A0930406B09305060E94A8016093060647
:1014D0007093070680930806909309060091020610
:1014E0001091030620910406309105066B017C01E2
:1014F000C01AD10AE20AF30A49E456E06AE576E046
:101500008EE496E00E94F8168823E9F089E496E0DC
:101510000E94A016182F1F928F9384E991E09F9349
:101520008F931F928CE38F938AE096E09F938F9323
:101530000E946B218AE096E059DE0FB6F894DEBF78
:101540000FBECDBF01C010E0B60181EE96E00E9453
:101550003E14B60188EC96E00E943E148091480645
:10156000B601882329F08FEA96E00E943E1407C056
:1015700088EA96E0BCDBB60181EA96E0B8DBB6010A
:101580008AE796E052DCB6018AE996E0B0DBB60164
:1015900083E996E0ACDBB6018CE896E0A8DBB60107
:1015A0008AEF96E00E9471138091060690910706DB
:1015B000A0910806B09109064091FE055091FF05E3
:1015C0006091000670910106841B950BA60BB70B6A
:1015D000883C9105A105B10508F4A8C008E0C12C1C
:1015E000D12C760180E00E941602BC0180E090E0E0
:1015F0000E940C1F24E13EEA43E252E40E94781E5E
:1016000020E030E046E952E40E94141E9B01AC0148
:10161000C701B6010E94141E6B017C01015011F735
:1016200020E030E040E05EE30E94C21F0E94E01E26
:101630006093FD0580914806882331F108E0C12CB4
:10164000D12C760181E00E941602BC0180E090E07E
:101650000E940C1F24E13EEA43E251E40E94781EFE
:101660009B01AC01C701B6010E94141E6B017C01F5
:10167000015041F720E030E040E05EE30E94C21FED
:101680000E94E01E6093FC0582E00E9416025C014D
:1016900083E00E9416026C0184E00E9416027C0125
:1016A000A114B10429F4C114D10411F4892B71F1EE
:1016B00043E06CE0CE0101960E943C16B5017695A0
:1016C000679576956795CE0101960E94AA16B60198
:1016D0007695679576956795CE0101960E94AA1634
:1016E000B7017695679576956795CE0101960E942C
:1016F000AA16AE014F5F5F4F6AE576E08EE496E092
:101700000E94C317CE0101960E94511680910606D1
:1017100090910706A0910806B09109068093FE05F6
:101720009093FF05A0930006B09301068091FB05FE
:10173000882319F084E690E002C080ED97E04091A4
:101740000606509107066091080670910906C09040
:10175000F705D090F805E090F905F090FA054C19DE
:101760005D096E097F09A0E0B0E0481759076A07D4
:101770007B0708F48CC049E06BE0CE0101960E9423
:101780003C166091FB05CE0101960E94AA1681EEDF
:1017900096E00E94E615682FCE0101960E94AA16D7
:1017A00088EC96E00E94E615682FCE0101960E9413
:1017B000AA1680914806882321F08FEA96E00E94BD
:1017C000E615682FCE0101960E94AA166091FD05CC
:1017D000CE0101960E94AA166091FC05CE010196E9
:1017E0000E94AA168AEF96E0E1D7682FCE010196F3
:1017F0000E94AA168AEF96E0EAD7682FCE010196DA
:101800000E94AA16C090F305D090F405E090F5056B
:10181000F090F6058091060690910706A0910806C3
:10182000B0910906C816D906EA06FB0610F460E076
:101830000DC0BC01CD016C197D098E099F0924E6FC
:1018400030E040E050E00E94901D622FCE010196F2
:101850000E94AA16AE014F5F5F4F6AE576E08EE404
:1018600096E00E94C3178091060690910706A0910A
:101870000806B09109068093F7059093F805A093A8
:10188000F905B093FA05CE0101960E9451168AE738
:1018900096E06EDB082F8AE796E06DDBE82E8AE79C
:1018A00096E06CDBF82E011108C0E11006C0811132
:1018B00004C0113009F044C01DC01F92FF921F9256
:1018C000EF921F920F9385EB91E09F938F931F925E
:1018D0008CE38F938AE096E09F938F930E946B2115
:1018E0008AE096E083DC0FB6F894DEBF0FBECDBF72
:1018F0000230F9F685EB95E079DC60E081EE96E068
:101900000E94411560E088EC96E00E9441158091AC
:101910004806882309F4D9C08091FC0581110AC0CA
:1019200060E08FEA96E00E9441158091FC0580936B
:10193000F205CBC064E68FEA96E00E944115C5C06F
:101940001B3009F464C01D30A9F544E06DE0CE0100
:1019500001960E943C1660914806CE0101960E94B5
:10196000AA1660914706CE0101960E94AA166091C0
:101970004606CE0101960E94AA1681EE96E00E94CC
:10198000231624E630E040E050E00E94901D622FD4
:10199000CE0101960E94AA16AE014F5F5F4F6AE525
:1019A00076E08EE496E00E94C317CE0101960E9475
:1019B000511602C11E3009F0F1C189E496E00E947F
:1019C000A316843009F0EAC1B4C18BEF810F8230D5
:1019D00038F589E496E00E94A616FC0180818130EA
:1019E00009F455C289E496E00E94A616FC018081A4
:1019F000823009F45FC289E496E00E94A616FC01D9
:101A00008081833009F469C281E08093FB051092E4
:101A1000F7051092F8051092F9051092FA05CCC05E
:101A20008091FB058111C6C28AEF96E0BFD688235C
:101A300009F4C0C28091F3059091F405A091F505D9
:101A4000B091F6050097A105B10509F44AC040918F
:101A500006065091070660910806709109068417E2
:101A60009507A607B70708F03CC088EC96E00E94EF
:101A7000E615F82E81EE96E00E94E61521E0F110C1
:101A800001C020E091E0811101C090E0291749F1E7
:101A900086EE93E0ABDB81EE96E00E94E6158111C5
:101AA00076C36091FD0581EE96E0EBD788EC96E079
:101AB0000E94E615811169C36091FD0588EC96E0EE
:101AC000E0D78091FD058093F1051092F305109207
:101AD000F4051092F5051092F60581E08093FB0560
:101AE0006BC0123009F42CC3F5E0EF1609F428C3DB
:101AF000173009F430C3183009F403C2013009F477
:101B0000F9C3133009F4F6C3043009F40DC41430DA
:101B100009F40AC4013009F423C4133009F420C4C1
:101B2000043009F433C4143009F430C4193009F412
:101B300043C46091F10570E08091FD05681B710957
:101B4000072E000C880B990B0E940E1F9F7720E038
:101B500030E040EC5FE30E94BE1F18160CF461C435
:101B600080914806811183C380914806882321F023
:101B70008091FC058111AAC4809148068111C7C4D7
:101B800080914806882321F08091FC058111E5C4ED
:101B900080914806882321F08091FC05811108C5B9
:101BA0008091480681111DC580914806882321F047
:101BB0008091FC0581113DC58AEF96E0F7D5882319
:101BC00041F18AEF96E003D68E3018F187EA95E06E
:101BD0000DDB60E081EE96E054D760E088EC96E0A3
:101BE00050D780914806882349F06091FC058FEA20
:101BF00096E047D78091FC058093F20581E08093C1
:101C0000FB051092F7051092F8051092F905109255
:101C1000FA0581EE96E0F6D7672B682B692B69F4FD
:101C200081EE96E0D3D7811104C08CE896E0A4D869
:101C300009C08CE896E09AD805C064E670E08CE8AC
:101C400096E09ED888EC96E0DDD7672B682B692B51
:101C500069F488EC96E0BAD7811104C08AE996E06D
:101C60008BD809C08AE996E081D805C064E670E0A7
:101C70008AE996E085D881EE96E0C4D797FD05C045
:101C800088EC96E0BFD797FF04C083E996E06ED852
:101C900014C081EE96E0B6D7161617061806190678
:101CA0004CF088EC96E0AED7161617061806190603
:101CB0000CF00AC383E996E05FD880914806811151
:101CC0002EC08091F3059091F405A091F505B09197
:101CD000F605892B8A2B8B2B59F064EF71E088EA8B
:101CE00096E04ED868EC70E081EA96E049D817C0DB
:101CF00081EE96E087D7672B682B692B41F488EC3F
:101D000096E080D7672B682B692B09F4E9C264E65B
:101D100070E081EA96E034D888EA96E02DD884EF26
:101D200091E020E931E0F9013197F1F70197D9F716
:101D3000B5C48FEC93E05ADA89E496E00E94A616C7
:101D4000FC01608181E091E00E94222489E496E018
:101D5000FDD7FC01618182E091E00E94222489E4A8
:101D600096E0F4D7FC01628183E091E00E94222496
:101D700089E496E0EBD7FC0163816E3120F0613598
:101D800018F060E501C06EE184E091E00E94222439
:101D900062E480E091E00E942224FFCFF3E0FF1292
:101DA0001AC081EE96E012D71F928F938BED91E0CF
:101DB0009F938F931F928CE38F938AE096E09F937B
:101DC0008F930E946B218AE096E010DA82E0809384
:101DD000FB056FEF39C096E0F9121AC088EC96E067
:101DE000F5D61F928F9383E092E09F938F931F927B
:101DF0008CE38F938AE096E09F938F930E946B21F0
:101E00008AE096E0F3D983E08093FB056FEF3CC056
:101E1000F1E0FF121DC081EE96E0D8D61F928F939D
:101E200080E392E09F938F931F928CE38F938AE0DD
:101E300096E09F938F930E946B218AE096E0D6D91B
:101E400084E08093FB0561E081EE96E0BCD6DCC0C7
:101E500094E0F912BACD88EC96E0B8D61F928F9331
:101E600087E592E09F938F931F928CE38F938AE094
:101E700096E09F938F930E946B218AE096E0B6D9FB
:101E800085E08093FB0561E088EC96E0DFCF83E896
:101E900092E0ACD981EE96E099D6153011F46BEF53
:101EA00001C065E0680F09F482C0643608F47FC0A1
:101EB00064E67DC086E992E099D988EC96E086D602
:101EC000153011F46BEF01C065E0680F09F44FC0E5
:101ED000643608F44CC064E64AC08EEA92E086D9C3
:101EE0008FEA96E073D6153011F46BEF01C065E010
:101EF000680F19F0643608F064E68FEA96E0C1D501
:101F000083CD89E496E022D7FC018081813009F0FD
:101F100006C288EC96E05AD6F82E81EE96E056D6A8
:101F200021E0F11001C020E091E0811101C090E0BA
:101F3000291709F4F4C188EC96E048D68823D1F03B
:101F40008AEF92E053D988EC96E040D6182F89E4C6
:101F500096E0FCD6FC018181813009F070C11350FC
:101F6000173408F476C1143608F014E6612F88ECB3
:101F700096E0C5CF81EE96E029D6882309F444CDBA
:101F80008DE093E033D981EE96E020D6182F89E4D6
:101F900096E0DCD6FC018181813009F05CC11350F0
:101FA000173408F462C1143608F014E6612F81EE8C
:101FB00096E0A5CF8091FB05813061F1823009F078
:101FC0008DC081EE96E002D61F928F938BE193E055
:101FD0009F938F931F928CE38F938AE096E09F9359
:101FE0008F930E946B218AE096E000D91092FB0546
:101FF00060E081EE96E0E7D51092F7051092F805C3
:102000001092F9051092FA050FB6F894DEBF0FBED4
:10201000CDBFD2CD809148068823B9F181EE96E0FC
:10202000F1D5672B682B692B09F0C6CD88EC96E0BB
:10203000E9D5672B682B692B09F0BECD8FEA96E0B6
:10204000E1D5672B682B692B09F0B6CD8FEA96E0B6
:10205000BDD5082F88EC96E0B9D5182F81EE96E013
:10206000B5D51F920F931F921F931F928F9389E3F1
:1020700095E09F938F931F928CE38F938AE096E075
:102080009F938F930E946B2118C181EE96E0BAD581
:10209000672B682B692B09F08FCD88EC96E0B2D5C1
:1020A000672B682B692B09F087CD88EC96E08ED5DD
:1020B000182F81EE96E08AD51F921F931F928F935F
:1020C0008BE795E09F938F931F928CE38F938AE029
:1020D00096E09F938F930E946B21EFC0833041F471
:1020E00088EC96E073D51F928F9386E493E014C03A
:1020F000843041F481EE96E069D51F928F9386E794
:1021000093E066CF853009F057CD88EC96E05ED538
:102110001F928F9380EA93E09F938F931F928CE39B
:102120008F938AE096E09F938F930E946B218AE0C1
:1021300096E05CD81092FB0560E088EC96E05BCFFF
:1021400083EC92E053D864E681EE96E09AD464E69C
:1021500088EC96E0B0C089E496E0F8D5FC01808177
:10216000813009F0C4C088EC96E030D5F82E81EEBD
:1021700096E02CD521E0F11001C020E091E0811122
:1021800001C090E0291305C0B2C060E097CC60E0C8
:102190008ACC88EC96E01AD5882311F189E496E080
:1021A000D5D5FC011181173420F0143618F014E64F
:1021B00001C016E41F921F938FEC92E09F938F93C0
:1021C0001F928CE38F938AE096E09F938F930E94F7
:1021D0006B218AE096E00AD8612F88EC96E028C04F
:1021E00081EE96E0F3D4882309F40ECC89E496E0DE
:1021F000ADD5FC011181173420F0143618F014E627
:1022000001C016E41F921F9387EE92E09F938F9375
:102210001F928CE38F938AE096E09F938F930E94A6
:102220006B218AE096E00E94F608612F81EE96E02D
:1022300028D40FB6F894DEBF0FBECDBFE5CB89E43E
:1022400096E084D5FC018181823009F089CE1D5F42
:1022500087CE16E48BCE89E496E078D5FC018181A7
:10226000823009F09DCE1D5F9BCE16E49FCE8091FB
:10227000FC05882309F478CC81EE96E0A7D4882366
:1022800009F472CC88EC96E0A1D4882309F46CCCD4
:102290008AEF96E09CD2863008F066CC8FEA96E012
:1022A00095D4843608F060CC8BE694E00E94F60862
:1022B00064E68FEA96E0E5D310CC8AE096E00E94CF
:1022C000F6081092FB0598CE8AEF96E06FD2811146
:1022D000DCCC64E670E083E996E00E94C006EDCCB9
:1022E00088EA96E00E94BC0681EA96E017CD0130AC
:1022F00009F00ACC81EE96E069D4811105CC88EC16
:1023000096E064D4811100CC84EF93E00E94F6083B
:102310006091FD0588EC96E0B4D360E019C001300F
:1023200049F3043009F0FCCB81EE96E04FD48111E3
:10233000F1CB88EC96E04AD48111ECCB8EEF93E0A0
:102340000E94F60860E088EC96E09BD36091FD0562
:1023500081EE96E096D38091FD058093F105BDCB8B
:1023600081EE96E033D4882309F4DACB88EC96E04A
:102370002DD48111D5CB89E094E00E94F60880919C
:10238000460624E6829FC001112432C081EE96E009
:102390001DD48111CBCB88EC96E018D4882309F4A6
:1023A000C5CB83E294E00E94F60880914606E4E6FD
:1023B0008E9FC00111241CC088EC96E007D4082F22
:1023C00081EE96E003D421E0011101C020E091E00C
:1023D000811101C090E0291709F4ABCB86EE93E0A0
:1023E0000E94F60880914606F4E68F9FC0011124F2
:1023F000092E000CAA0BBB0B409106065091070654
:102400006091080670910906840F951FA61FB71FDB
:102410008093F3059093F405A093F505B093F6052A
:10242000CBCB81EE96E0D2D38823F9F088EC96E00E
:10243000CDD381111AC08091FD051F928F938EE339
:1024400094E09F938F931F928CE38F938AE096E0A2
:102450009F938F930E946B218AE096E00E94F6087A
:102460006091FD0581EE96E023C081EE96E0AED34B
:10247000811127C088EC96E0A9D3882311F18091BF
:10248000FD051F928F9382E594E09F938F931F9297
:102490008CE38F938AE096E09F938F930E946B2149
:1024A0008AE096E00E94F6086091FD0588EC96E0CF
:1024B000E8D28091FD058093F10581E08093FB05D2
:1024C000A3CD8091FD058093F10576CB81EE96E05A
:1024D0007DD3082F88EC96E079D321E0011101C06B
:1024E00020E091E0811101C090E0291709F444CB6C
:1024F0008AEF96E06CD1863008F03ECB8FEA96E00A
:1025000065D3843608F038CB86E894E0CFCE173018
:1025100009F036CB89E496E019D4FC018081823041
:1025200009F02ECB81EE96E051D3082F88EC96E08F
:102530004DD321E0011101C020E091E0811101C0E3
:1025400090E0291709F41CCB8AEF96E040D1863041
:1025500008F416CB8FE994E061C081EE96E036D3A3
:10256000882331F08AEF96E032D1863038F410CBF0
:1025700088EC96E02BD38111F5CF0ACB6091F20560
:1025800070E08091FC05681B7109072E000C880B18
:10259000990B0E940E1F9F7720E030E040E250E44C
:1025A0000E94BE1F18160CF0F3CA81EC94E06AC0BA
:1025B00081EE96E00BD38111F3CA88EC96E006D346
:1025C0008111EECA8AEF96E002D1863008F0E8CA9F
:1025D0008FEA96E0FBD2843608F0E2CA81EE94E0FE
:1025E00065CE173009F0E0CA89E496E0AFD3FC016C
:1025F0008081823009F0D8CA81EE96E0E7D281115D
:10260000D3CA88EC96E0E2D28111CECA8AEF96E076
:10261000DED0863008F4C8CA8CEF94E00E94F60839
:1026200089E496E093D3FC016181653608F441CEDC
:102630003FCE81EE96E0CAD28111BECA88EC96E008
:10264000C5D28111B9CA8AEF96E0C1D0863008F4AC
:10265000B3CA6091F20570E08091FC05681B7109B6
:10266000072E000C880B990B0E940E1F9F7720E00D
:1026700030E040E250E40E94BE1F18160CF09CCAE5
:1026800080E295E00E94F6086091FC058FEA96E0F2
:10269000F8D18091FC058093F2051FCA0F900F902E
:1026A0000F900F900F90DF91CF911F910F91FF909E
:1026B000EF90DF90CF90BF90AF9008950E945709A0
:1026C0000E94440AFDCFCF93DF93EC010E943002B9
:1026D000CD58DF4F8FEF9FEF99838883DF91CF91A4
:1026E00008958F929F92AF92BF92CF92DF92EF9216
:1026F000FF920F931F93CF93DF931F92CDB7DEB757
:1027000020914706211144C07C0123E7E20EF11C11
:10271000F701208131812F3FFFEF3F0729F0620F42
:10272000731FF701718360838C016C01F5E7CF0E95
:10273000D11C84E6882E912CA12CB12C0E94BD05C1
:102740008823D9F0CE0101960E94F7058823B1F3C2
:102750006981C8010E942805882381F3F80160A5DA
:1027600071A582A593A5A50194010E94901DF60173
:102770002083F70111821082E1CFF70180819181DE
:102780008131974228F08FEF9FEFF701918380838B
:102790000F90DF91CF911F910F91FF90EF90DF90FD
:1027A000CF90BF90AF909F908F9008952091470653
:1027B00021110BC0FC01ED58FF4F81E020813181D8
:1027C0002F3F3F4F19F480E0089581E00895209154
:1027D0004706211105C0FC01EB58FF4F8081089589
:1027E00089E00895AF92CF92EF92FF920F93CF932B
:1027F000DF93FC01718360834283348323830583E9
:10280000F782E682C086A1868CEA9DE09387828764
:10281000EB01588181E090E0DC0101C0AA0F4A95EC
:10282000EAF74A2F409545234883E901E881AC0146
:1028300001C0440F0A95EAF7542F50955E23588340
:10284000F701508101C0880FCA94EAF7982F90953C
:1028500095239083FB019291A92BA083F90192917A
:10286000492B4083F7019291892B8083DF91CF918F
:102870000F91FF90EF90CF90AF9008950F931F931B
:10288000FC0180899189A289B389181619061A0654
:102890001B060CF441C00489158926893789808D6F
:1028A0001016110612061306A4F1811132C0A08180
:1028B000B1813C9181E090E0AC01028002C0440F04
:1028C000551F0A94E2F7242F209523232C93A381EC
:1028D000B4813C91AC01058002C0440F551F0A949D
:1028E000E2F7242F209523232C93A681B7812C91E6
:1028F000008402C0880F991F0A94E2F7822B8C9300
:10290000108A118A128A138A148A158A168A178ADB
:1029100098C018160CF046C0A081B1813C9181E0AE
:1029200090E0AC01028002C0440F551F0A94E2F708
:10293000242F209523232C93A381B4814C919C01B7
:10294000058002C0220F331F0A94E2F7242B2C9338
:10295000A681B7812C91008402C0880F991F0A9428
:10296000E2F7822B8C93808DAB0160E070E08111E7
:102970000CC080899189A289B389841B950BA60B11
:10298000B70B808B918BA28BB38B84859585A685A5
:10299000B785480F591F6A1F7B1F44875587668775
:1029A00077874FC010161106120613061CF08823F5
:1029B00009F447C0A081B1814C9181E090E09C0175
:1029C000028002C0220F331F0A94E2F7242B2C93BB
:1029D000A381B4813C91AC01058002C0440F551F16
:1029E0000A94E2F7242F209523232C93A681B78104
:1029F0002C91008402C0880F991F0A94E2F7822B61
:102A00008C93208DCB01A0E0B0E021110CC0448953
:102A1000558966897789481B590B6A0B7B0B448B58
:102A2000558B668B778B44855585668577858A01BE
:102A30009B01081B190B2A0B3B0B04871587268764
:102A400037874485558566857785141615061606DD
:102A500017062CF014861586168617860FC08285F9
:102A60009385092E000CAA0BBB0B481759076A0760
:102A70007B0724F084879587A687B7871F910F91DE
:102A80000895CF92DF92EF92FF920F931F93CF930F
:102A9000DF93EC0167FD60E0162F65360CF014E65D
:102AA000188E88899989AA89BB8901E0892B8A2B8C
:102AB0008B2B49F48C899D89AE89BF89892B8A2B00
:102AC0008B2B09F400E0AA85BB85212F012E000C79
:102AD000330B0E94D41D24E630E040E050E00E9419
:102AE000B21D8C859D85AE85BF85281739074A079D
:102AF0005B078CF46C017D01C21AD30AE40AF50A63
:102B0000CC8ADD8AEE8AFF8A188A198A1A8A1B8A79
:102B100001113DC018C0BA01A901481B590B6A0B2D
:102B20007B0B488B598B6A8B7B8B1C8A1D8A1E8A78
:102B30001F8A011118C0452B462B472B21F00A97FD
:102B4000A109B1090CC04C895D896E897F89141671
:102B50001506160617063CF40A96A11DB11D8C87B2
:102B60009D87AE87BF8788899989AA89BB891816EE
:102B700019061A061B065CF4143649F48C53964F5A
:102B8000AF4FBF4F888B998BAA8BBB8B13C08C899F
:102B90009D89AE89BF89181619061A061B0654F4BA
:102BA000111108C08C53964FAF4FBF4F8C8B9D8B2C
:102BB000AE8BBF8BDF91CF911F910F91FF90EF9064
:102BC000DF90CF900895FC01608F0895FC0124856B
:102BD000358546855785A4E6B0E00E94EF1D228525
:102BE0003385032E000C440B550BBCD7C90125308F
:102BF000310524F0233631051CF4089580E0089552
:102C000084E60895FC01608971898289938916168A
:102C1000170618061906B4F084899589A689B7891C
:102C2000181619061A061B0654F49C01AD016627F6
:102C30007727CB01621B730B840B950B089560E023
:102C400070E0CB010895FC0162857385072E000CAE
:102C5000880B990B0895683B2BE0720738F06134BC
:102C6000EFE17E0728F060E47FE102C068EB7BE0E3
:102C7000FC017387628708950F931F93CF93DF93AF
:102C8000EC01062F142F842F90E00E9425209A83B8
:102C9000898308831C831B82DF91CF911F910F9141
:102CA0000895FC01818192810C94BD20EF92FF92E6
:102CB0000F931F93CF93DF93EC01E62EF42E052F95
:102CC000122F822F90E00E9425209A838983E88228
:102CD0001B831C83EF2DF02F80E090E0811740F4E0
:102CE0002191A981BA81A80FB91F2C930196F6CF23
:102CF000DF91CF911F910F91FF90EF900895CF93A7
:102D0000DF93FC01DB018C91808380E09481891743
:102D100088F4282F30E01196CD91DC911297C20FE4
:102D2000D31F988141815281EA01C20FD31F98833A
:102D30008F5FECCF13968C918383DF91CF910895B1
:102D4000FC0180810895FC0183810895FC0181814B
:102D500092810895DC011196ED91FC9112971396E2
:102D60008C91139791E0980F13969C93E80FF11DA7
:102D7000608308951F93CF93DF93EC01162F862F66
:102D800090E00E9425209F838E83188718821982E5
:102D90001A821B821C821D82DF91CF911F910895A0
:102DA000FC01868197810C94BD201F93CF93DF9304
:102DB000CB01642F23E8240FDC01ED91FC9122303C
:102DC00080F4142FEC010280F381E02D6DE709956A
:102DD00060E26127E881F9810280F381E02DCE0174
:102DE00003C00280F381E02DDF91CF911F91099400
:102DF0007F928F929F92AF92BF92CF92DF92EF928B
:102E0000FF920F931F93CF93DF9300D000D000D099
:102E1000CDB7DEB78C016B015A0182E0E82E93E05A
:102E2000992EFF24F39424E0822E30E2732ED601F3
:102E3000ED91FC910190F081E02DBE016A5F7F4F22
:102E4000C6010995882309F48AC0F801808181119F
:102E500003C08E818E3759F7D80115968C9115973E
:102E6000882339F08E818E3711F715961C921597AD
:102E70001C92F8018081882349F09E819E3711F4CD
:102E8000F582D5CF9D3711F4F482D1CFF80194812A
:102E9000992321F09E8197259E831482823040F0F1
:102EA000D80113962C9113979E81920F13969C93A1
:102EB000813069F048F08230A9F48E81D8011296F1
:102EC0008C9312979C92B3CFF801F082B0CF8E8191
:102ED000811104C0D80115969C92A9CFF801818375
:102EE000E082A5CF90E0AC0143505109F801208564
:102EF00030E02417350714F4858299CF2181422FC1
:102F000050E04E5F5F4F84179507D9F483818F3F60
:102F1000A1F42150468157816281CE010196C6DE1F
:102F2000BE016F5F7F4FC501EADEF8011082138298
:102F3000CE010196B6DE81E012C0E58210821382D6
:102F400076CF2E81D8010680F781E02D8E0F9F1F4E
:102F5000FC01339720838C918F5F8C9368CF2696EA
:102F60000FB6F894DEBF0FBECDBFDF91CF911F919A
:102F70000F91FF90EF90DF90CF90BF90AF909F9018
:102F80008F907F9008955F926F927F928F929F9221
:102F9000AF92BF92CF92DF92EF92FF920F931F9367
:102FA000CF93DF938C01EB01FA0173806080C180C5
:102FB000D280912C812CE72CF12C570123E0A20E1A
:102FC000B11C7394892D90E0A816B9068CF121E00C
:102FD0009216A1F0921648F022E0921211C0462DEE
:102FE000BE01C801E2DE862C21C0E881F9810280A1
:102FF000F381E02D6EE7CE01099518C0472D08C07A
:103000009C0123503109E216F30631F4482D409516
:10301000BE01C801CADE0AC08C0D9D1DFC0133979C
:103020005080452DBE01C801C0DE850C9394CACFE7
:10303000DF91CF911F910F91FF90EF90DF90CF9094
:10304000BF90AF909F908F907F906F905F9008950A
:10305000FC0195818681981781F08681A381B481D6
:10306000A80FB11D8C91DB018C9386818F5F8683C5
:103070009281891720F0168202C080E0089581E0D5
:1030800008951F93CF93DF93EC01162F8FEB95E0FC
:1030900099838883611101C011E0812F90E0D5D719
:1030A0009C838B831A831D821E82DF91CF911F9197
:1030B00008952FEB35E0FC013183208383819481D7
:1030C0000C94BD20FC012581968181E0291380E0CC
:1030D0000895FC012581468130E0C9010196628195
:1030E00070E00BD5BC01242F30E081E0621773073C
:1030F00009F080E008951F93CF93DF93EC01162F22
:10310000E8DF81110EC08D81EB81FC81E80FF11D9C
:1031100010838D818F5F8D839A81891720F01D82A6
:1031200002C080E001C081E0DF91CF911F9108953E
:10313000FC01A585B68581E090E0058802C0880F76
:10314000991F0A94E2F72C9130E028233923232B8E
:10315000D1F30388F489E02D608381E008954F92D4
:103160005F926F927F92AF92CF92EF92FF920F9306
:103170001F93CF93DF93EC012A013B01122F6A2D9D
:1031800027EC35E0FC0121933193CF017ADFCC208D
:1031900059F1F1E0CF12DAC08DEC90E09A8789877F
:1031A0008CEC90E09C878B8788EC90E09E878D87E5
:1031B00089EC90E0988B8F878AEC90E09A8B898BD2
:1031C0008EEC90E09C8B8B8B85E08D8BCE8A82E0A1
:1031D0008F8B888F94E0998F83E08A8F27E02B8FE5
:1031E000CC8E1D8E9E8F8F8FED85FE8580818260B7
:1031F0008083411481EE580661047104A9F060E0F7
:1032000079E08DE390E0A30192018AD4DA01C9014B
:103210000197A109B109B695A795979587959C0146
:10322000211590E13907B0F0ED85FE8580818D7F15
:10323000808360E874E88EE190E0A301920170D48D
:10324000DA01C9010197A109B109B695A79597952A
:1032500087959C01E985FA853083EB85FC85208381
:10326000ED85FE85308181E090E0AC010D8C02C0DF
:10327000440F551F0A94E2F7242F2095232320831F
:10328000E989FA8910821930F1F4EF85F8894081D3
:103290009C01088C02C0220F331F0A94E2F7242BF2
:1032A0002083E989FA892081AC010F8802C0440F8C
:1032B000551F0A94E2F70E8802C0880F991F0A94DE
:1032C000E2F7842B0CC0E989FA892081812F90E0F4
:1032D00005970E8802C0880F991F0A94E2F7822B87
:1032E0008083E989FA898081F12C91E0E91AF1085B
:1032F0000F8C02C0EE0CFF1C0A94E2F710E00E8C5B
:1033000002C0000F111F0A94E2F70E29082B008358
:10331000EF85F889308181E090E0BC01098C02C022
:10332000660F771F0A94E2F7AC010A8C02C0440FC3
:10333000551F0A94E2F7262F242B232B0B8C02C057
:10334000880F991F0A94E2F7822B8083DF91CF9137
:103350001F910F91FF90EF90CF90AF907F906F9063
:103360005F904F900895CF92DF92EF92FF920F936C
:103370001F93CF93DF93EC017B01EF85F889908158
:1033800001E010E098010B8C02C0220F331F0A9459
:10339000E2F7822F8095892380836E0182E0C80E38
:1033A000D11CC6018FDE811112C0B701C60150DEEB
:1033B000882369F0EF85F88980810B8C02C0000FAB
:1033C000111F0A94E2F7082B008381E00EC0EF85FD
:1033D000F889208181E090E00B8C02C0880F991F52
:1033E0000A94E2F7822B808380E0DF91CF911F91D6
:1033F0000F91FF90EF90DF90CF900895DC015396EE
:10340000ED91FC9154976081029675CE9FB7F89428
:1034100080917207882379F083E08093E9003BE68E
:103420002091E80025FD09C0822F847022FF03C08F
:103430003093E800F5CF9FBF08958091F10020916F
:10344000E80025FD03C02BE62093E8009FBFFB01A9
:10345000808381E008958091E80080FFFCCF08958B
:1034600080917207811102C08FEF08959FB7F89481
:1034700084E08093E90080917007882351F02091C7
:10348000E800822F807225FD02C09FBF0895109230
:1034900070072091E400275E44E03091E800832F1C
:1034A000807235FD12C09FBF9091E400291304C0C3
:1034B00091E0909370070895809172078823A1F29C
:1034C0009FB7F8944093E900E8CF6093F1008091B2
:1034D000E80085FD03C08AE38093E80085E08093DF
:1034E00071079FBF81E008952FEC35E0FC01318327
:1034F000208381E08093D70080EA8093D80082E126
:1035000089BD09B400FEFDCF80E98093D8001092F8
:10351000E000109272078CE08093E20078940895A6
:103520008091720708950F931F93CF93DB018091D1
:103530007207882309F453C19FB7F89484E08093FD
:10354000E90080917007882351F02091E800822FD4
:10355000807225FD02C09FBF42C11092700764E0D7
:1035600070E4CAE355E0442309F436C18091E400D5
:10357000875E2091E80025FD13C09FBF9091E40075
:10358000891304C081E08093700728C1909172076D
:10359000992309F423C19FB7F8946093E900E9CF18
:1035A0008091F200272F281BE42F241708F4E22F24
:1035B0004E1B0E2F10E00134110508F000C1F80178
:1035C000E158FF4FEBC28C918093F10011968C91E2
:1035D0008093F10011968C918093F10011968C915B
:1035E0008093F10011968C918093F10011968C914B
:1035F0008093F10011968C918093F10011968C913B
:103600008093F10011968C918093F10011968C912A
:103610008093F10011968C918093F10011968C911A
:103620008093F10011968C918093F10011968C910A
:103630008093F10011968C918093F10011968C91FA
:103640008093F10011968C918093F10011968C91EA
:103650008093F10011968C918093F10011968C91DA
:103660008093F10011968C918093F10011968C91CA
:103670008093F10011968C918093F10011968C91BA
:103680008093F10011968C918093F10011968C91AA
:103690008093F10011968C918093F10011968C919A
:1036A0008093F10011968C918093F10011968C918A
:1036B0008093F10011968C918093F10011968C917A
:1036C0008093F10011968C918093F10011968C916A
:1036D0008093F10011968C918093F10011968C915A
:1036E0008093F10011968C918093F10011968C914A
:1036F0008093F10011968C918093F10011968C913A
:103700008093F10011968C918093F10011968C9129
:103710008093F10011968C918093F10011968C9119
:103720008093F10011968C918093F10011968C9109
:103730008093F10011968C918093F10011968C91F9
:103740008093F10011968C918093F10011968C91E9
:103750008093F10011968C918093F10011968C91D9
:103760008093F10011968C918093F10011968C91C9
:103770008093F10011968C918093F10011968C91B9
:103780008093F10011968C918093F10011968C91A9
:103790008093F10011968C918093F10011968C9199
:1037A0008093F10011968C918093F10011968C9189
:1037B0008093F10011968C918093F10011968C9179
:1037C0008093F10011968091E80085FFC093E80096
:1037D000509371079FBFC7CE81E001C08FEFCF919B
:1037E0001F910F9108951F920F920FB60F921124FF
:1037F0008F939F938091E1001092E10083FF0FC0AF
:103800001092E90091E09093EB001092EC0092E1AD
:103810009093ED0098E09093F0001092720782FF71
:1038200013C080917207882379F0809171078823F3
:1038300059F0815080937107811106C084E0809314
:10384000E9008AE38093E8009F918F910F900FBE6B
:103850000F901F9018951F920F920FB60F92112480
:10386000FF920F931F932F933F934F935F936F9309
:103870007F938F939F93AF93BF93CF93DF93EF93F8
:10388000FF931092E9008091E80083FF0EC1F09051
:10389000F1008091F1000091F1009091F10010E0B1
:1038A000192BC091F1009091F100D0E0D92B20911B
:1038B000F1006091F10092EF9093E800863009F0FA
:1038C00049C080E891E04AEA51E0FC01A591B49139
:1038D0000A171B07D9F4FC013296A591B491CA17B7
:1038E000DB07A1F4FC01349645915491FC01369616
:1038F000849130E0362B2F3F310519F010F02FEF77
:1039000030E0281708F4822F3EEF0CC007964817C6
:103910005907D9F6CAC0490F511D891B3093E800D9
:103920008823A9F09091E800292F2570D9F392FD02
:10393000BFC0982F813108F090E1FA01292F22238E
:1039400051F364916093F10021503196F8CF90319A
:1039500049F3AEC0853041F48EEF8093E8007BDD03
:1039600000680093E300A4C0893049F5F1109DC0C0
:1039700000937207109271078EEF8093E80041E088
:1039800087E892E04093E9009C012F5F3F4FFC01E4
:1039900054915093EB00552359F0F9012491209351
:1039A000EC009C012D5F3F4F3196E491E093ED00D8
:1039B0004F5F453011F0C901E5CF8EE171C088300D
:1039C00049F4F0E8FF1271C046DD809172078093E0
:1039D000F10044C0813279F481EAF81266C03BDD1F
:1039E000E6E0F1E08DE091E021912093F1008E1767
:1039F0009F07D1F733C08032A9F491E2F91255C084
:103A00008091E80082FFFCCFE6E0F1E08DE091E0FC
:103A10002091F10021938E179F07D1F78BEF8093B0
:103A2000E8001CC0823229F4E1E2FE123EC013DD40
:103A300015C0811117C00FDDF2E8FF120AC0C09354
:103A4000E9008091EB0085FB882780F91092E9005E
:103A500001C080E08093F1001092F1008EEF80931E
:103A6000E80026C0982F9D7F9130F9F492E0F9127A
:103A70001CC0012BD1F4CF779FEF9C0F9430A8F49A
:103A80009EEF9093E800C093E900833071F089E1E4
:103A90008093EB0081E090E001C0880FCA95EAF7BF
:103AA0008093EA001092EA0003C081E28093EB0069
:103AB000FF91EF91DF91CF91BF91AF919F918F9146
:103AC0007F916F915F914F913F912F911F910F9136
:103AD000FF900F900FBE0F901F901895DB018F93F2
:103AE0009F937DD0BF91AF91A29F800D911DA39F09
:103AF000900DB29F900D1124089597FB072E16F498
:103B0000009406D077FD08D07AD007FC05D03EF4AB
:103B1000909581959F4F0895709561957F4F089579
:103B2000A1E21A2EAA1BBB1BFD010DC0AA1FBB1FC1
:103B3000EE1FFF1FA217B307E407F50720F0A21B33
:103B4000B30BE40BF50B661F771F881F991F1A94A0
:103B500069F760957095809590959B01AC01BD01CA
:103B6000CF010895052E97FB16F400940FD057FD52
:103B700005D0D6DF07FC02D046F408C0509540952A
:103B8000309521953F4F4F4F5F4F08959095809509
:103B9000709561957F4F8F4F9F4F0895EE0FFF1FD8
:103BA0000590F491E02D099405D0332312F48A1B7B
:103BB0009B0B10C0A29FB001B39FC001A39F700DCB
:103BC000811D1124911DB29F700D811D1124911D25
:103BD0000895F0DFB7FF0895821B930B0895EADF85
:103BE000A59F900DB49F900DA49F800D911D112451
:103BF0000895B7FFF4CFF3DF821B930B0895AA1B40
:103C0000BB1B51E107C0AA1FBB1FA617B70710F0C7
:103C1000A61BB70B881F991F5A95A9F780959095F9
:103C2000BC01CD0108955058BB27AA270ED06CC106
:103C30005DD130F062D120F031F49F3F11F41EF4D9
:103C400052C10EF4E095E7FB48C1E92F6ED180F335
:103C5000BA17620773078407950718F071F49EF589
:103C600086C10EF4E0950B2EBA2FA02D0B01B901E1
:103C700090010C01CA01A0011124FF27591B99F0E2
:103C8000593F50F4503E68F11A16F040A22F232FEE
:103C9000342F4427585FF3CF469537952795A7953E
:103CA000F0405395C9F77EF41F16BA0B620B730BE5
:103CB000840BBAF09150A1F0FF0FBB1F661F771F56
:103CC000881FC2F70EC0BA0F621F731F841F48F40B
:103CD000879577956795B795F7959E3F08F0B3CF91
:103CE0009395880F08F09927EE0F9795879508957B
:103CF0000CD00AC102D140F0F9D030F021F45F3F7E
:103D000019F0EBC0511134C1EEC00FD198F39923D3
:103D1000C9F35523B1F3951B550BBB27AA2762178F
:103D20007307840738F09F5F5F4F220F331F441FD4
:103D3000AA1FA9F333D00E2E3AF0E0E830D091500C
:103D40005040E695001CCAF729D0FE2F27D0660FF9
:103D5000771F881FBB1F261737074807AB07B0E838
:103D600009F0BB0B802DBF01FF2793585F4F2AF04E
:103D70009E3F510568F0B1C0FBC05F3FECF3983E39
:103D8000DCF3869577956795B795F7959F5FC9F7AB
:103D9000880F911D9695879597F90895E1E0660F34
:103DA000771F881FBB1F621773078407BA0720F0AD
:103DB000621B730B840BBA0BEE1F88F7E095089516
:103DC000BCD088F09F5790F0B92F9927B751A0F039
:103DD000D1F0660F771F881F991F1AF0BA95C9F79F
:103DE00012C0B13081F0C3D0B1E00895C0C0672FD8
:103DF000782F8827B85F39F0B93FCCF3869577954F
:103E00006795B395D9F73EF4909580957095619537
:103E10007F4F8F4F9F4F0895E89409C097FB3EF462
:103E200090958095709561957F4F8F4F9F4F992307
:103E3000A9F0F92F96E9BB279395F6958795779585
:103E40006795B795F111F8CFFAF4BB0F11F460FF45
:103E50001BC06F5F7F4F8F4F9F4F16C0882311F09D
:103E600096E911C0772321F09EE8872F762F05C0B1
:103E7000662371F096E8862F70E060E02AF09A954C
:103E8000660F771F881FDAF7880F9695879597F941
:103E90000895990F0008550FAA0BE0E8FEEF1616DB
:103EA0001706E807F907C0F012161306E407F5072E
:103EB00098F0621B730B840B950B39F40A2661F0A2
:103EC000232B242B252B21F408950A2609F4A14045
:103ED000A6958FEF811D811D089597F99F6780E852
:103EE00070E060E008959FEF80EC089500240A944C
:103EF0001616170618060906089500240A941216C5
:103F00001306140605060895092E0394000C11F4F7
:103F1000882352F0BB0F40F4BF2B11F460FF04C0A4
:103F20006F5F7F4F8F4F9F4F089557FD9058440FFD
:103F3000551F59F05F3F71F04795880F97FB991F08
:103F400061F09F3F79F087950895121613061406C5
:103F5000551FF2CF4695F1DF08C016161706180652
:103F6000991FF1CF86957105610508940895E8942D
:103F7000BB2766277727CB0197F908958ADF08F4D6
:103F80008FEF08950BD0C0CFB1DF28F0B6DF18F067
:103F9000952309F0A2CFA7CF1124EACFC6DFA0F363
:103FA000959FD1F3950F50E0551F629FF001729FCE
:103FB000BB27F00DB11D639FAA27F00DB11DAA1FED
:103FC000649F6627B00DA11D661F829F2227B00D3A
:103FD000A11D621F739FB00DA11D621F839FA00DC5
:103FE000611D221F749F3327A00D611D231F849F15
:103FF000600D211D822F762F6A2F11249F5750406C
:104000008AF0E1F088234AF0EE0FFF1FBB1F661F06
:10401000771F881F91505040A9F79E3F510570F0BF
:104020005CCFA6CF5F3FECF3983EDCF386957795A7
:104030006795B795F795E7959F5FC1F7FE2B880FBA
:10404000911D9695879597F908950F931F93CF9398
:10405000DF938230910510F482E090E0E0917507E3
:10406000F091760720E030E0A0E0B0E0309719F161
:10407000408151810281138148175907C8F0841784
:10408000950769F4109731F012960C9312971396D6
:104090001C9327C0009375071093760722C0211543
:1040A000310519F04217530718F49A01BD01EF01C9
:1040B000DF01F801DBCF21153105F9F0281B390BA1
:1040C0002430310580F48A819B816115710521F0CE
:1040D000FB019383828304C09093760780937507D6
:1040E000FE01329644C0FE01E20FF31F81939193CB
:1040F00022503109398328833AC0209173073091C7
:104100007407232B41F42091020130910301309375
:10411000740720937307209100013091010121154C
:10412000310541F42DB73EB740910401509105018E
:10413000241B350BE0917307F0917407E217F30726
:10414000A0F42E1B3F0B2817390778F0AC014E5F07
:104150005F4F2417350748F04E0F5F1F50937407C9
:10416000409373078193919302C0E0E0F0E0CF01A8
:10417000DF91CF911F910F910895CF93DF93009717
:1041800009F481C0FC01329713821282A091750755
:10419000B0917607109781F420813181820F931FAF
:1041A00020917307309174072817390751F5F09360
:1041B0007407E093730767C0ED0120E030E0CE178D
:1041C000DF0740F44A815B819E0141155105F1F002
:1041D000EA01F5CFD383C28340815181840F951FBB
:1041E000C817D90759F488819981840F951F0296C1
:1041F000918380838A819B819383828321153105FA
:1042000029F4F0937607E09375073DC0E901FB833D
:10421000EA8349915991C40FD51FEC17FD0761F44A
:1042200080819181840F951F0296E901998388838B
:10423000828193819B838A83E0E0F0E012968D91E6
:104240009C911397009719F0FD01DC01F7CF8D9138
:104250009C9111979D012E5F3F4F820F931F2091DC
:104260007307309174072817390769F4309729F4D8
:10427000109276071092750702C013821282B093D3
:104280007407A0937307DF91CF910895FC018827ED
:104290009927E89421912032E9F3293010F02E304B
:1042A000C8F32B3239F02D3231F4689403C00BD0AF
:1042B000820F911D219120532A30C8F31EF490954E
:1042C00081959F4F08957AE0979F902D879F802D2D
:1042D000910D11240895AEE0B0E0E0E7F1E2D2C222
:1042E0000D891E898F89988D26E02C831A83098376
:1042F00097FF02C080E090E801979E838D83AE0116
:10430000455E5F4F698D7A8DCE01019611D04D814A
:104310005E8157FD0AC02F813885421753070CF480
:104320009A01F801E20FF31F10822E96E4E0C6C254
:10433000ABE0B0E0EDE9F1E297C26C017B018A01EC
:10434000FC0117821682838181FFBFC1CE010196D5
:104350003C01F6019381F70193FD859193FF8191D3
:104360007F01882309F4ADC1853239F493FD85912D
:1043700093FF81917F01853221F4B60190E0C0D195
:10438000E8CF912C212C312CFFE1F315D8F08B32A2
:1043900079F038F4803279F08332A1F4232D206152
:1043A0001DC08D3261F0803369F4232D216016C069
:1043B000832D8260382EE32DE4603E2E2AC0F32D3B
:1043C000F8601DC037FC2DC020ED280F2A3040F0CA
:1043D0008E32B9F436FC75C1232D2064322E19C0FB
:1043E00036FE06C08AE0989E200D1124922E11C040
:1043F000EAE02E9E200D1124222EF32DF0623F2E96
:1044000008C08C3621F4832D8068382E02C088368F
:1044100041F4F70193FD859193FF81917F01811113
:10442000B3CF982F9F7D9554933028F40C5F1F4F86
:104430009FE399830DC0833631F0833771F0833564
:1044400009F055C020C0F801808189830E5F1F4F9D
:1044500088248394912C530112C02801F2E04F0E5E
:10446000511CF801A080B18036FE03C0692D70E0B8
:1044700002C06FEF7FEFC50138D14C018201F32DEF
:10448000FF773F2E15C0280122E0420E511CF80193
:10449000A080B18036FE03C0692D70E002C06FEFCE
:1044A0007FEFC50117D14C01F32DF0683F2E82013B
:1044B00033FC19C0822D90E088169906A0F4B6014D
:1044C00080E290E01DD12A94F5CFF50137FC85916B
:1044D00037FE81915F01B60190E012D121102A943C
:1044E00021E0821A91088114910479F7E1C08436A1
:1044F00011F0893639F5F80137FE07C06081718106
:10450000828193810C5F1F4F08C060817181072EEB
:10451000000C880B990B0E5F1F4FF32DFF763F2E7B
:1045200097FF09C090958095709561957F4F8F4F4B
:104530009F4FF0683F2E2AE030E0A3011DD1882E66
:10454000861844C0853731F4232D2F7EB22E2AE001
:1045500030E025C0932D997FB92E8F36C1F018F425
:10456000883579F0AEC0803719F0883721F0A9C0BE
:10457000E92FE061BE2EB4FE0DC0FB2DF460BF2E0E
:1045800009C034FE0AC0292F2660B22E06C028E0DA
:1045900030E005C020E130E002C020E132E0F80167
:1045A000B7FE07C060817181828193810C5F1F4FCC
:1045B00006C06081718180E090E00E5F1F4FA30113
:1045C000DBD0882E8618FB2DFF773F2E36FE0DC0E0
:1045D000232D2E7FA22E891458F434FE0BC032FCFA
:1045E00009C0832D8E7EA82E05C0B82CA32C03C035
:1045F000B82C01C0B92CA4FE0FC0FE01E80DF11DBE
:104600008081803321F49A2D997EA92E09C0A2FEC3
:1046100006C0B394B39404C08A2D867809F0B3948D
:10462000A3FC10C0A0FE06C0B21480F4280C922C8B
:104630009B180DC0B21458F4B60180E290E060D02F
:10464000B394F8CFB21418F42B1802C0982C212C74
:10465000A4FE0FC0B60180E390E052D0A2FE16C0C7
:10466000A1FC03C088E790E002C088E590E0B601B5
:104670000CC08A2D867851F0A1FE02C08BE201C0E9
:1046800080E2A7FC8DE2B60190E03AD0891430F4C4
:10469000B60180E390E034D09A94F8CF8A94F30185
:1046A000E80DF11D8081B60190E02AD08110F6CF8F
:1046B000222009F44ECEB60180E290E021D02A9467
:1046C000F7CFF6018681978102C08FEF9FEF2B967F
:1046D000E2E1E6C0FC010590615070400110D8F79E
:1046E000809590958E0F9F1F0895FC01615070403A
:1046F00001900110D8F7809590958E0F9F1F089517
:104700000F931F93CF93DF93FB01238121FD03C000
:104710008FEF9FEF2CC022FF16C046815781248166
:1047200035814217530744F4A081B1819D012F5F69
:104730003F4F318320838C93268137812F5F3F4FFA
:104740003783268314C08B01EC01FB010084F185C3
:10475000E02D0995892BE1F6D80116968D919C9153
:104760001797019617969C938E931697CE01DF911B
:10477000CF911F910F910895FA01AA27283051F186
:10478000203181F1E8946F936E7F6E5F7F4F8F4F82
:104790009F4FAF4FB1E03ED0B4E03CD0670F781FE1
:1047A000891F9A1FA11D680F791F8A1F911DA11DC6
:1047B0006A0F711D811D911DA11D20D009F46894FF
:1047C0003F912AE0269F11243019305D3193DEF6A7
:1047D000CF010895462F4770405D4193B3E00FD05D
:1047E000C9F7F6CF462F4F70405D4A3318F0495D48
:1047F00031FD4052419302D0A9F7EACFB4E0A6952B
:104800009795879577956795BA95C9F7009761054C
:10481000710508959B01AC010A2E069457954795A2
:1048200037952795BA95C9F7620F731F841F951F97
:10483000A01D0895F999FECF92BD81BDF89A9927E0
:1048400080B50895262FF999FECF92BD81BDF89AC3
:10485000019700B4021639F01FBA20BD0FB6F894C4
:10486000FA9AF99A0FBE08952F923F924F925F9253
:104870006F927F928F929F92AF92BF92CF92DF9270
:10488000EF92FF920F931F93CF93DF93CDB7DEB7D5
:10489000CA1BDB0B0FB6F894DEBF0FBECDBF099469
:1048A0002A88398848885F846E847D848C849B84C0
:1048B000AA84B984C884DF80EE80FD800C811B81CE
:1048C000AA81B981CE0FD11D0FB6F894DEBF0FBEFD
:1048D000CDBFED01089511E0CBE4D1E003C0FE01AE
:0E48E0005DD92196CD34D107D1F7F894FFCFE2
:1048EE0000007707200000E100000000084750524A
:1048FE004D43004750474741004E004E4E45004540
:10490E004E450045534500535345005300535357EE
:10491E000057535700574E57004E4E57002424242D
:10492E0000532D2C4536310053532C433000535435
:10493E002C303036342C303330302C303030322C6A
:10494E003030343000522C310053746172747570F3
:10495E0020636F6D706C657465643B20656E61627B
:10496E006C696E67207761746368646F6720746921
:10497E006D6572004D657373616765207265636561
:10498E00697665643A20436F6D6D616E6420307890
:10499E00253032580052656C656173653A20256486
:1049AE003B204C6F6E672050726573733A202564FE
:1049BE003B2048656C643A20256400486F6C642087
:1049CE006D616E75616C20726574726163742070B6
:1049DE006F72743B20657874656E73696F6E3A20E2
:1049EE00256400486F6C64206D616E75616C207279
:1049FE006574726163742073746172626F61726444
:104A0E003B20657874656E73696F6E3A202564007D
:104A1E00486F6C64206D616E75616C20657874658D
:104A2E006E6420706F72743B20657874656E736966
:104A3E006F6E3A20256400486F6C64206D616E7550
:104A4E00616C20657874656E642073746172626F38
:104A5E006172643B20657874656E73696F6E3A207F
:104A6E002564004D616E75616C2061646A757374A6
:104A7E0020706F7274004D616E75616C2061646A96
:104A8E007573742073746172626F617264004D612C
:104A9E006E75616C2061646A7573742063656E74E3
:104AAE006572004C61756E6368206D6F64650053AE
:104ABE0065742073746172626F61726420746162D6
:104ACE0020746F2025640053657420706F727420FB
:104ADE0074616220746F202564005472696D2073B6
:104AEE00746172626F6172642074616200547269E3
:104AFE006D20706F7274207461620052656C656116
:104B0E007365206D616E75616C2072657472616380
:104B1E007420706F72743B20657874656E73696F64
:104B2E006E3A2025640052656C65617365206D6177
:104B3E006E75616C2072657472616374207374613A
:104B4E0072626F6172643B20657874656E73696F13
:104B5E006E3A2025640052656C65617365206D6147
:104B6E006E75616C20657874656E6420706F7274FA
:104B7E003B20657874656E73696F6E3A202564000C
:104B8E0052656C65617365206D616E75616C206533
:104B9E007874656E642073746172626F6172643BC7
:104BAE0020657874656E73696F6E3A2025640053C4
:104BBE00657420636F6E66696720616E642072652E
:104BCE0073746172740057616B65207472616E73D9
:104BDE006665720053757266204C65667400537577
:104BEE0072662052696768740057616B6520747233
:104BFE00616E73666572202853757266204C656609
:104C0E0074290057616B65207472616E73666572EC
:104C1E002028537572662052696768742900547291
:104C2E00696D20706F72742074616220746F20251C
:104C3E0064005472696D2073746172626F61726484
:104C4E002074616220746F20256400457874656E4F
:104C5E00642063656E7465722074616220284C61F5
:104C6E00756E63682900457874656E642063656EA1
:104C7E00746572207461622028537572662900541F
:104C8E0072696D2063656E74657220746162207640
:104C9E006961206D6F62696C652028537572662993
:104CAE00005472696D2063656E7465722074616262
:104CBE002076696120504F54322028537572662930
:104CCE0000457874656E642063656E746572207439
:104CDE00616220284E6F726D616C29005472696D8D
:104CEE002063656E7465722074616220766961203E
:104CFE006D6F62696C6520284E6F726D616C290054
:104D0E005472696D2063656E7465722074616220E1
:104D1E00284E6F726D616C2900506F727420657829
:104D2E0074656E73696F6E3A2025643B205374610F
:104D3E0072626F61726420657874656E73696F6EEE
:104D4E003A2025643B2043656E7465722065787445
:104D5E00656E73696F6E3A20256400506F72742011
:104D6E00657874656E73696F6E3A2025643B2053C7
:104D7E00746172626F61726420657874656E7369B6
:104D8E006F6E3A20256400475053204F766572733C
:104D9E00706565642052657365740000000000281C
:104DAE00187B1800000000B31998180000000006C8
:044DBE001A301A008D
:00000001FF
